:100000000C9456000C946B000C946B000C946B00D9
:100010000C946B000C946B000C946B000C946B00B4
:100020000C946B000C946B000C946B000C946B00A4
:100030000C946B000C946B000C946B000C946B0094
:100040000C946B000C946B000C946B000C946B0084
:100050000C946B000C946B000C946B000C946B0074
:100060000C946B000C946B000C946B000C946B0064
:100070000C946B000C946B000C946B000C946B0054
:100080000C946B000C946B000C946B000C946B0044
:100090000C946B000C946B000C946B000C946B0034
:1000A0000C946B000C946B000C946B0011241FBE1D
:1000B000CFEFDAE0DEBFCDBF11E0A0E0B1E0ECE7CA
:1000C000F1E002C005900D92A431B107D9F70E946A
:1000D000AD000C94BC000C94000080E880BB089537
:1000E0008F9A2FEF89E698E1215080409040E1F708
:1000F00000C000008F982FEF89E698E121508040E2
:100100009040E1F700C0000008958091C80087FF8B
:10011000FCCF8091CE0008959091C80095FFFCCF50
:100120008093CE0080E090E00895CF93DF93EC01C0
:100130008991882319F00E948C00FACFDF91CF912A
:1001400008951092CD0087E68093CC0088E18093DB
:10015000C9008EE08093CA0008950E94A10080E04B
:1001600091E00E94950080E880BB8FE091E00E94C2
:0C01700095000E947000F9CFF894FFCFBA
:10017C00546573742062657374616E64656E0054AB
:04018C006573740023
:00000001FF
